{
  "contractName": "Escrow",
  "abi": [
    {
      "inputs": [
        {
          "internalType": "address",
          "name": "_payer",
          "type": "address"
        },
        {
          "internalType": "address payable",
          "name": "_payee",
          "type": "address"
        },
        {
          "internalType": "uint256",
          "name": "_amount",
          "type": "uint256"
        }
      ],
      "payable": false,
      "stateMutability": "nonpayable",
      "type": "constructor"
    },
    {
      "constant": true,
      "inputs": [],
      "name": "amount",
      "outputs": [
        {
          "internalType": "uint256",
          "name": "",
          "type": "uint256"
        }
      ],
      "payable": false,
      "stateMutability": "view",
      "type": "function"
    },
    {
      "constant": true,
      "inputs": [],
      "name": "lawyer",
      "outputs": [
        {
          "internalType": "address",
          "name": "",
          "type": "address"
        }
      ],
      "payable": false,
      "stateMutability": "view",
      "type": "function"
    },
    {
      "constant": true,
      "inputs": [],
      "name": "payee",
      "outputs": [
        {
          "internalType": "address payable",
          "name": "",
          "type": "address"
        }
      ],
      "payable": false,
      "stateMutability": "view",
      "type": "function"
    },
    {
      "constant": true,
      "inputs": [],
      "name": "payer",
      "outputs": [
        {
          "internalType": "address",
          "name": "",
          "type": "address"
        }
      ],
      "payable": false,
      "stateMutability": "view",
      "type": "function"
    },
    {
      "constant": false,
      "inputs": [],
      "name": "deposit",
      "outputs": [],
      "payable": true,
      "stateMutability": "payable",
      "type": "function"
    },
    {
      "constant": false,
      "inputs": [],
      "name": "release",
      "outputs": [],
      "payable": false,
      "stateMutability": "nonpayable",
      "type": "function"
    },
    {
      "constant": true,
      "inputs": [],
      "name": "balanceOf",
      "outputs": [
        {
          "internalType": "uint256",
          "name": "",
          "type": "uint256"
        }
      ],
      "payable": false,
      "stateMutability": "view",
      "type": "function"
    }
  ],
  "bytecode": "0x608060405234801561001057600080fd5b506040516106d23803806106d28339818101604052606081101561003357600080fd5b81019080805190602001909291908051906020019092919080519060200190929190505050336000806101000a81548173ffffffffffffffffffffffffffffffffffffffff021916908373ffffffffffffffffffffffffffffffffffffffff16021790555082600160006101000a81548173ffffffffffffffffffffffffffffffffffffffff021916908373ffffffffffffffffffffffffffffffffffffffff16021790555081600260006101000a81548173ffffffffffffffffffffffffffffffffffffffff021916908373ffffffffffffffffffffffffffffffffffffffff1602179055508060038190555050505061059f806101336000396000f3fe6080604052600436106100705760003560e01c806386d1a69f1161004e57806386d1a69f1461014e578063aa8c217c14610165578063ae90b21314610190578063d0e30db0146101e757610070565b8063123119cd146100755780633bfb6e31146100cc578063722713f714610123575b600080fd5b34801561008157600080fd5b5061008a6101f1565b604051808273ffffffffffffffffffffffffffffffffffffffff1673ffffffffffffffffffffffffffffffffffffffff16815260200191505060405180910390f35b3480156100d857600080fd5b506100e1610217565b604051808273ffffffffffffffffffffffffffffffffffffffff1673ffffffffffffffffffffffffffffffffffffffff16815260200191505060405180910390f35b34801561012f57600080fd5b5061013861023c565b6040518082815260200191505060405180910390f35b34801561015a57600080fd5b50610163610244565b005b34801561017157600080fd5b5061017a6103ce565b6040518082815260200191505060405180910390f35b34801561019c57600080fd5b506101a56103d4565b604051808273ffffffffffffffffffffffffffffffffffffffff1673ffffffffffffffffffffffffffffffffffffffff16815260200191505060405180910390f35b6101ef6103fa565b005b600160009054906101000a900473ffffffffffffffffffffffffffffffffffffffff1681565b6000809054906101000a900473ffffffffffffffffffffffffffffffffffffffff1681565b600047905090565b600260009054906101000a900473ffffffffffffffffffffffffffffffffffffffff1673ffffffffffffffffffffffffffffffffffffffff163373ffffffffffffffffffffffffffffffffffffffff1614610307576040517f08c379a000000000000000000000000000000000000000000000000000000000815260040180806020018281038252601d8152602001807f6f6e6c79206c61777965722063616e2072656c656173652066756e647300000081525060200191505060405180910390fd5b6003544714610361576040517f08c379a000000000000000000000000000000000000000000000000000000000815260040180806020018281038252602e81526020018061051b602e913960400191505060405180910390fd5b600260009054906101000a900473ffffffffffffffffffffffffffffffffffffffff1673ffffffffffffffffffffffffffffffffffffffff166108fc6003549081150290604051600060405180830381858888f193505050501580156103cb573d6000803e3d6000fd5b50565b60035481565b600260009054906101000a900473ffffffffffffffffffffffffffffffffffffffff1681565b600160009054906101000a900473ffffffffffffffffffffffffffffffffffffffff1673ffffffffffffffffffffffffffffffffffffffff163373ffffffffffffffffffffffffffffffffffffffff16146104bd576040517f08c379a000000000000000000000000000000000000000000000000000000000815260040180806020018281038252600a8152602001807f6f6e6c792070617965720000000000000000000000000000000000000000000081525060200191505060405180910390fd5b600354471115610518576040517f08c379a00000000000000000000000000000000000000000000000000000000081526004018080602001828103825260228152602001806105496022913960400191505060405180910390fd5b56fe63616e27742072656c656173652066756e6473206265666f72652066756c6c20616d6f756e742069732073656e7463616e27742073656e64206d6f7265207468616e20657363726f7720616d6f756e74a265627a7a7231582068489ebdafe8642a72f1295e9c5d6137399a9562d1131b128690bbb6a5dacea664736f6c63430005100032",
  "source": "pragma solidity >=0.4.16 <0.8.0;\r\n\r\ncontract Escrow{\r\n    \r\n    address public lawyer;\r\n    address public payer;\r\n    address payable public payee;\r\n    uint public amount;\r\n    \r\n    constructor (address _payer,address payable _payee, uint _amount) public{\r\n        lawyer=msg.sender;\r\n        payer=_payer;\r\n        payee=_payee;\r\n        amount=_amount;\r\n    }\r\n    \r\n    function deposit()payable public {\r\n        require(msg.sender==payer,\"only payer\");\r\n        require(address(this).balance <= amount,\"can't send more than escrow amount\");\r\n    }\r\n    \r\n    function release ()public{\r\n        require(msg.sender==payee,\"only lawyer can release funds\");\r\n        require(address(this).balance == amount,\"can't release funds before full amount is sent\");\r\n        payee.transfer(amount);\r\n    }\r\n    \r\n    function balanceOf()view public returns (uint){\r\n        return address(this).balance;\r\n    }\r\n    \r\n}",
  "sourcePath": "C:/blockchain/ethereum/projects/escrow/contracts/Escrow.sol",
  "compiler": {
    "name": "solc",
    "version": "0.5.16+commit.9c3226ce.Emscripten.clang"
  },
  "schemaVersion": "3.0.22",
  "updatedAt": "2020-09-13T19:10:04.516Z",
  "networkType": "ethereum",
  "devdoc": {
    "methods": {}
  },
  "userdoc": {
    "methods": {}
  }
}